{
  "_format": "hh-sol-artifact-1",
  "contractName": "Domains",
  "sourceName": "contracts/Domains.sol",
  "abi": [
    {
      "inputs": [
        {
          "internalType": "string",
          "name": "_tld",
          "type": "string"
        }
      ],
      "stateMutability": "payable",
      "type": "constructor"
    },
    {
      "inputs": [],
      "name": "AlreadyRegistered",
      "type": "error"
    },
    {
      "inputs": [
        {
          "internalType": "string",
          "name": "name",
          "type": "string"
        }
      ],
      "name": "InvalidName",
      "type": "error"
    },
    {
      "inputs": [],
      "name": "Unauthorized",
      "type": "error"
    },
    {
      "anonymous": false,
      "inputs": [
        {
          "indexed": true,
          "internalType": "address",
          "name": "owner",
          "type": "address"
        },
        {
          "indexed": true,
          "internalType": "address",
          "name": "approved",
          "type": "address"
        },
        {
          "indexed": true,
          "internalType": "uint256",
          "name": "tokenId",
          "type": "uint256"
        }
      ],
      "name": "Approval",
      "type": "event"
    },
    {
      "anonymous": false,
      "inputs": [
        {
          "indexed": true,
          "internalType": "address",
          "name": "owner",
          "type": "address"
        },
        {
          "indexed": true,
          "internalType": "address",
          "name": "operator",
          "type": "address"
        },
        {
          "indexed": false,
          "internalType": "bool",
          "name": "approved",
          "type": "bool"
        }
      ],
      "name": "ApprovalForAll",
      "type": "event"
    },
    {
      "anonymous": false,
      "inputs": [
        {
          "indexed": true,
          "internalType": "address",
          "name": "from",
          "type": "address"
        },
        {
          "indexed": true,
          "internalType": "address",
          "name": "to",
          "type": "address"
        },
        {
          "indexed": true,
          "internalType": "uint256",
          "name": "tokenId",
          "type": "uint256"
        }
      ],
      "name": "Transfer",
      "type": "event"
    },
    {
      "inputs": [
        {
          "internalType": "address",
          "name": "to",
          "type": "address"
        },
        {
          "internalType": "uint256",
          "name": "tokenId",
          "type": "uint256"
        }
      ],
      "name": "approve",
      "outputs": [],
      "stateMutability": "nonpayable",
      "type": "function"
    },
    {
      "inputs": [
        {
          "internalType": "address",
          "name": "owner",
          "type": "address"
        }
      ],
      "name": "balanceOf",
      "outputs": [
        {
          "internalType": "uint256",
          "name": "",
          "type": "uint256"
        }
      ],
      "stateMutability": "view",
      "type": "function"
    },
    {
      "inputs": [
        {
          "internalType": "string",
          "name": "",
          "type": "string"
        }
      ],
      "name": "domains",
      "outputs": [
        {
          "internalType": "address",
          "name": "",
          "type": "address"
        }
      ],
      "stateMutability": "view",
      "type": "function"
    },
    {
      "inputs": [
        {
          "internalType": "string",
          "name": "name",
          "type": "string"
        }
      ],
      "name": "getAddress",
      "outputs": [
        {
          "internalType": "address",
          "name": "",
          "type": "address"
        }
      ],
      "stateMutability": "view",
      "type": "function"
    },
    {
      "inputs": [],
      "name": "getAllNames",
      "outputs": [
        {
          "internalType": "string[]",
          "name": "",
          "type": "string[]"
        }
      ],
      "stateMutability": "view",
      "type": "function"
    },
    {
      "inputs": [
        {
          "internalType": "uint256",
          "name": "tokenId",
          "type": "uint256"
        }
      ],
      "name": "getApproved",
      "outputs": [
        {
          "internalType": "address",
          "name": "",
          "type": "address"
        }
      ],
      "stateMutability": "view",
      "type": "function"
    },
    {
      "inputs": [
        {
          "internalType": "string",
          "name": "name",
          "type": "string"
        }
      ],
      "name": "getRecord",
      "outputs": [
        {
          "internalType": "string",
          "name": "",
          "type": "string"
        }
      ],
      "stateMutability": "view",
      "type": "function"
    },
    {
      "inputs": [
        {
          "internalType": "address",
          "name": "owner",
          "type": "address"
        },
        {
          "internalType": "address",
          "name": "operator",
          "type": "address"
        }
      ],
      "name": "isApprovedForAll",
      "outputs": [
        {
          "internalType": "bool",
          "name": "",
          "type": "bool"
        }
      ],
      "stateMutability": "view",
      "type": "function"
    },
    {
      "inputs": [],
      "name": "isOwner",
      "outputs": [
        {
          "internalType": "bool",
          "name": "",
          "type": "bool"
        }
      ],
      "stateMutability": "view",
      "type": "function"
    },
    {
      "inputs": [],
      "name": "name",
      "outputs": [
        {
          "internalType": "string",
          "name": "",
          "type": "string"
        }
      ],
      "stateMutability": "view",
      "type": "function"
    },
    {
      "inputs": [
        {
          "internalType": "uint256",
          "name": "",
          "type": "uint256"
        }
      ],
      "name": "names",
      "outputs": [
        {
          "internalType": "string",
          "name": "",
          "type": "string"
        }
      ],
      "stateMutability": "view",
      "type": "function"
    },
    {
      "inputs": [],
      "name": "owner",
      "outputs": [
        {
          "internalType": "address payable",
          "name": "",
          "type": "address"
        }
      ],
      "stateMutability": "view",
      "type": "function"
    },
    {
      "inputs": [
        {
          "internalType": "uint256",
          "name": "tokenId",
          "type": "uint256"
        }
      ],
      "name": "ownerOf",
      "outputs": [
        {
          "internalType": "address",
          "name": "",
          "type": "address"
        }
      ],
      "stateMutability": "view",
      "type": "function"
    },
    {
      "inputs": [
        {
          "internalType": "string",
          "name": "name",
          "type": "string"
        }
      ],
      "name": "price",
      "outputs": [
        {
          "internalType": "uint256",
          "name": "",
          "type": "uint256"
        }
      ],
      "stateMutability": "pure",
      "type": "function"
    },
    {
      "inputs": [
        {
          "internalType": "string",
          "name": "",
          "type": "string"
        }
      ],
      "name": "records",
      "outputs": [
        {
          "internalType": "string",
          "name": "",
          "type": "string"
        }
      ],
      "stateMutability": "view",
      "type": "function"
    },
    {
      "inputs": [
        {
          "internalType": "string",
          "name": "name",
          "type": "string"
        }
      ],
      "name": "registers",
      "outputs": [],
      "stateMutability": "payable",
      "type": "function"
    },
    {
      "inputs": [
        {
          "internalType": "address",
          "name": "from",
          "type": "address"
        },
        {
          "internalType": "address",
          "name": "to",
          "type": "address"
        },
        {
          "internalType": "uint256",
          "name": "tokenId",
          "type": "uint256"
        }
      ],
      "name": "safeTransferFrom",
      "outputs": [],
      "stateMutability": "nonpayable",
      "type": "function"
    },
    {
      "inputs": [
        {
          "internalType": "address",
          "name": "from",
          "type": "address"
        },
        {
          "internalType": "address",
          "name": "to",
          "type": "address"
        },
        {
          "internalType": "uint256",
          "name": "tokenId",
          "type": "uint256"
        },
        {
          "internalType": "bytes",
          "name": "_data",
          "type": "bytes"
        }
      ],
      "name": "safeTransferFrom",
      "outputs": [],
      "stateMutability": "nonpayable",
      "type": "function"
    },
    {
      "inputs": [
        {
          "internalType": "address",
          "name": "operator",
          "type": "address"
        },
        {
          "internalType": "bool",
          "name": "approved",
          "type": "bool"
        }
      ],
      "name": "setApprovalForAll",
      "outputs": [],
      "stateMutability": "nonpayable",
      "type": "function"
    },
    {
      "inputs": [
        {
          "internalType": "string",
          "name": "name",
          "type": "string"
        },
        {
          "internalType": "string",
          "name": "record",
          "type": "string"
        }
      ],
      "name": "setRecord",
      "outputs": [],
      "stateMutability": "nonpayable",
      "type": "function"
    },
    {
      "inputs": [
        {
          "internalType": "bytes4",
          "name": "interfaceId",
          "type": "bytes4"
        }
      ],
      "name": "supportsInterface",
      "outputs": [
        {
          "internalType": "bool",
          "name": "",
          "type": "bool"
        }
      ],
      "stateMutability": "view",
      "type": "function"
    },
    {
      "inputs": [],
      "name": "symbol",
      "outputs": [
        {
          "internalType": "string",
          "name": "",
          "type": "string"
        }
      ],
      "stateMutability": "view",
      "type": "function"
    },
    {
      "inputs": [],
      "name": "tld",
      "outputs": [
        {
          "internalType": "string",
          "name": "",
          "type": "string"
        }
      ],
      "stateMutability": "view",
      "type": "function"
    },
    {
      "inputs": [
        {
          "internalType": "uint256",
          "name": "tokenId",
          "type": "uint256"
        }
      ],
      "name": "tokenURI",
      "outputs": [
        {
          "internalType": "string",
          "name": "",
          "type": "string"
        }
      ],
      "stateMutability": "view",
      "type": "function"
    },
    {
      "inputs": [
        {
          "internalType": "address",
          "name": "from",
          "type": "address"
        },
        {
          "internalType": "address",
          "name": "to",
          "type": "address"
        },
        {
          "internalType": "uint256",
          "name": "tokenId",
          "type": "uint256"
        }
      ],
      "name": "transferFrom",
      "outputs": [],
      "stateMutability": "nonpayable",
      "type": "function"
    },
    {
      "inputs": [
        {
          "internalType": "string",
          "name": "name",
          "type": "string"
        }
      ],
      "name": "valid",
      "outputs": [
        {
          "internalType": "bool",
          "name": "",
          "type": "bool"
        }
      ],
      "stateMutability": "pure",
      "type": "function"
    },
    {
      "inputs": [],
      "name": "withdraw",
      "outputs": [],
      "stateMutability": "nonpayable",
      "type": "function"
    }
  ],
  "bytecode": "0x6080604052604051806108a0016040528061086b81526020016200540961086b9139600d908051906020019062000038929190620002c8565b506040518060400160405280600d81526020017f3c2f746578743e3c2f7376673e00000000000000000000000000000000000000815250600e908051906020019062000086929190620002c8565b5060405162005c7438038062005c748339818101604052810190620000ac919062000515565b6040518060400160405280601281526020017f4d61746963204e616d65205365727669636500000000000000000000000000008152506040518060400160405280600381526020017f4d4e530000000000000000000000000000000000000000000000000000000000815250816000908051906020019062000130929190620002c8565b50806001908051906020019062000149929190620002c8565b50505033600c60006101000a81548173ffffffffffffffffffffffffffffffffffffffff021916908373ffffffffffffffffffffffffffffffffffffffff1602179055508060089080519060200190620001a5929190620002c8565b50620001f26040518060400160405280601981526020017f2573206e616d65207365727669636573206465706c6f7965640000000000000081525082620001f960201b62001c781760201c565b5062000663565b6200029b828260405160240162000212929190620005c3565b6040516020818303038152906040527f4b5c4277000000000000000000000000000000000000000000000000000000007bffffffffffffffffffffffffffffffffffffffffffffffffffffffff19166020820180517bffffffffffffffffffffffffffffffffffffffffffffffffffffffff83818316178352505050506200029f60201b60201c565b5050565b60008151905060006a636f6e736f6c652e6c6f679050602083016000808483855afa5050505050565b828054620002d6906200062d565b90600052602060002090601f016020900481019282620002fa576000855562000346565b82601f106200031557805160ff191683800117855562000346565b8280016001018555821562000346579182015b828111156200034557825182559160200191906001019062000328565b5b50905062000355919062000359565b5090565b5b80821115620003745760008160009055506001016200035a565b5090565b6000604051905090565b600080fd5b600080fd5b600080fd5b600080fd5b6000601f19601f8301169050919050565b7f4e487b7100000000000000000000000000000000000000000000000000000000600052604160045260246000fd5b620003e18262000396565b810181811067ffffffffffffffff82111715620004035762000402620003a7565b5b80604052505050565b60006200041862000378565b9050620004268282620003d6565b919050565b600067ffffffffffffffff821115620004495762000448620003a7565b5b620004548262000396565b9050602081019050919050565b60005b838110156200048157808201518184015260208101905062000464565b8381111562000491576000848401525b50505050565b6000620004ae620004a8846200042b565b6200040c565b905082815260208101848484011115620004cd57620004cc62000391565b5b620004da84828562000461565b509392505050565b600082601f830112620004fa57620004f96200038c565b5b81516200050c84826020860162000497565b91505092915050565b6000602082840312156200052e576200052d62000382565b5b600082015167ffffffffffffffff8111156200054f576200054e62000387565b5b6200055d84828501620004e2565b91505092915050565b600081519050919050565b600082825260208201905092915050565b60006200058f8262000566565b6200059b818562000571565b9350620005ad81856020860162000461565b620005b88162000396565b840191505092915050565b60006040820190508181036000830152620005df818562000582565b90508181036020830152620005f5818462000582565b90509392505050565b7f4e487b7100000000000000000000000000000000000000000000000000000000600052602260045260246000fd5b600060028204905060018216806200064657607f821691505b602082108114156200065d576200065c620005fe565b5b50919050565b614d9680620006736000396000f3fe60806040526004361061019c5760003560e01c80636352211e116100ec578063b88d4fde1161008a578063c87b56dd11610064578063c87b56dd14610603578063e985e9c514610640578063fb825e5f1461067d578063fe2c6198146106a85761019c565b8063b88d4fde14610574578063bf40fac11461059d578063c1880a98146105da5761019c565b80638f32d59b116100c65780638f32d59b146104b857806395d89b41146104e35780639791c0971461050e578063a22cb4651461054b5761019c565b80636352211e1461041357806370a08231146104505780638da5cb5b1461048d5761019c565b8063264492351161015957806342842e0e1161013357806342842e0e1461035457806343b9de381461037d5780634622ab0314610399578063541e771d146103d65761019c565b806326449235146102d55780632d551432146103125780633ccfd60b1461033d5761019c565b806301ffc9a7146101a157806306fdde03146101de578063081812fc14610209578063095ea7b31461024657806311dd88451461026f57806323b872dd146102ac575b600080fd5b3480156101ad57600080fd5b506101c860048036038101906101c39190613157565b6106e5565b6040516101d5919061319f565b60405180910390f35b3480156101ea57600080fd5b506101f36107c7565b6040516102009190613253565b60405180910390f35b34801561021557600080fd5b50610230600480360381019061022b91906132ab565b610859565b60405161023d9190613319565b60405180910390f35b34801561025257600080fd5b5061026d60048036038101906102689190613360565b6108de565b005b34801561027b57600080fd5b5061029660048036038101906102919190613405565b6109f6565b6040516102a39190613253565b60405180910390f35b3480156102b857600080fd5b506102d360048036038101906102ce9190613452565b610aa9565b005b3480156102e157600080fd5b506102fc60048036038101906102f791906135d5565b610b09565b6040516103099190613319565b60405180910390f35b34801561031e57600080fd5b50610327610b52565b6040516103349190613253565b60405180910390f35b34801561034957600080fd5b50610352610be0565b005b34801561036057600080fd5b5061037b60048036038101906103769190613452565b610ca6565b005b61039760048036038101906103929190613405565b610cc6565b005b3480156103a557600080fd5b506103c060048036038101906103bb91906132ab565b611137565b6040516103cd9190613253565b60405180910390f35b3480156103e257600080fd5b506103fd60048036038101906103f891906135d5565b6111d7565b60405161040a9190613253565b60405180910390f35b34801561041f57600080fd5b5061043a600480360381019061043591906132ab565b61128d565b6040516104479190613319565b60405180910390f35b34801561045c57600080fd5b506104776004803603810190610472919061361e565b61133f565b604051610484919061365a565b60405180910390f35b34801561049957600080fd5b506104a26113f7565b6040516104af9190613696565b60405180910390f35b3480156104c457600080fd5b506104cd61141d565b6040516104da919061319f565b60405180910390f35b3480156104ef57600080fd5b506104f8611475565b6040516105059190613253565b60405180910390f35b34801561051a57600080fd5b5061053560048036038101906105309190613405565b611507565b604051610542919061319f565b60405180910390f35b34801561055757600080fd5b50610572600480360381019061056d91906136dd565b6115bb565b005b34801561058057600080fd5b5061059b600480360381019061059691906137be565b6115d1565b005b3480156105a957600080fd5b506105c460048036038101906105bf9190613405565b611633565b6040516105d19190613319565b60405180910390f35b3480156105e657600080fd5b5061060160048036038101906105fc9190613841565b61167e565b005b34801561060f57600080fd5b5061062a600480360381019061062591906132ab565b611759565b6040516106379190613253565b60405180910390f35b34801561064c57600080fd5b50610667600480360381019061066291906138c2565b6118ab565b604051610674919061319f565b60405180910390f35b34801561068957600080fd5b5061069261193f565b60405161069f9190613a0e565b60405180910390f35b3480156106b457600080fd5b506106cf60048036038101906106ca9190613405565b611bb8565b6040516106dc919061365a565b60405180910390f35b60007f80ac58cd000000000000000000000000000000000000000000000000000000007bffffffffffffffffffffffffffffffffffffffffffffffffffffffff1916827bffffffffffffffffffffffffffffffffffffffffffffffffffffffff191614806107b057507f5b5e139f000000000000000000000000000000000000000000000000000000007bffffffffffffffffffffffffffffffffffffffffffffffffffffffff1916827bffffffffffffffffffffffffffffffffffffffffffffffffffffffff1916145b806107c057506107bf82611d14565b5b9050919050565b6060600080546107d690613a5f565b80601f016020809104026020016040519081016040528092919081815260200182805461080290613a5f565b801561084f5780601f106108245761010080835404028352916020019161084f565b820191906000526020600020905b81548152906001019060200180831161083257829003601f168201915b5050505050905090565b600061086482611d7e565b6108a3576040517f08c379a000000000000000000000000000000000000000000000000000000000815260040161089a90613b03565b60405180910390fd5b6004600083815260200190815260200160002060009054906101000a900473ffffffffffffffffffffffffffffffffffffffff169050919050565b60006108e98261128d565b90508073ffffffffffffffffffffffffffffffffffffffff168373ffffffffffffffffffffffffffffffffffffffff16141561095a576040517f08c379a000000000000000000000000000000000000000000000000000000000815260040161095190613b95565b60405180910390fd5b8073ffffffffffffffffffffffffffffffffffffffff16610979611dea565b73ffffffffffffffffffffffffffffffffffffffff1614806109a857506109a7816109a2611dea565b6118ab565b5b6109e7576040517f08c379a00000000000000000000000000000000000000000000000000000000081526004016109de90613c27565b60405180910390fd5b6109f18383611df2565b505050565b6060600a8383604051610a0a929190613c77565b90815260200160405180910390208054610a2390613a5f565b80601f0160208091040260200160405190810160405280929190818152602001828054610a4f90613a5f565b8015610a9c5780601f10610a7157610100808354040283529160200191610a9c565b820191906000526020600020905b815481529060010190602001808311610a7f57829003601f168201915b5050505050905092915050565b610aba610ab4611dea565b82611eab565b610af9576040517f08c379a0000000000000000000000000000000000000000000000000000000008152600401610af090613d02565b60405180910390fd5b610b04838383611f89565b505050565b6009818051602081018201805184825260208301602085012081835280955050505050506000915054906101000a900473ffffffffffffffffffffffffffffffffffffffff1681565b60088054610b5f90613a5f565b80601f0160208091040260200160405190810160405280929190818152602001828054610b8b90613a5f565b8015610bd85780601f10610bad57610100808354040283529160200191610bd8565b820191906000526020600020905b815481529060010190602001808311610bbb57829003601f168201915b505050505081565b610be861141d565b610bf157600080fd5b600047905060003373ffffffffffffffffffffffffffffffffffffffff1682604051610c1c90613d53565b60006040518083038185875af1925050503d8060008114610c59576040519150601f19603f3d011682016040523d82523d6000602084013e610c5e565b606091505b5050905080610ca2576040517f08c379a0000000000000000000000000000000000000000000000000000000008152600401610c9990613db4565b60405180910390fd5b5050565b610cc1838383604051806020016040528060008152506115d1565b505050565b600073ffffffffffffffffffffffffffffffffffffffff1660098383604051610cf0929190613c77565b908152602001604051809103902060009054906101000a900473ffffffffffffffffffffffffffffffffffffffff1673ffffffffffffffffffffffffffffffffffffffff1614610d6c576040517f3a81d6fc00000000000000000000000000000000000000000000000000000000815260040160405180910390fd5b610d768282611507565b610db95781816040517f7f19f48d000000000000000000000000000000000000000000000000000000008152600401610db0929190613e01565b60405180910390fd5b6000610dc58383611bb8565b905080341015610e0a576040517f08c379a0000000000000000000000000000000000000000000000000000000008152600401610e0190613e71565b60405180910390fd5b600083836008604051602001610e2293929190613f71565b6040516020818303038152906040529050610e726040518060400160405280600581526020017f5f6e616d6500000000000000000000000000000000000000000000000000000081525082611c78565b6000600d82600e604051602001610e8b93929190613fd3565b60405160208183030381529060405290506000610ea860076121f0565b90506000610ef987878080601f016020809104026020016040519081016040528093929190818152602001838380828437600081840152601f19601f820116905080830192505050505050506121fe565b90506000610f06826123b3565b9050610f6f6040518060600160405280602e8152602001614c81602e913989898080601f016020809104026020016040519081016040528093929190818152602001838380828437600081840152601f19601f8201169050808301925050505050505085612514565b6000610fa586610f7e876125b3565b84604051602001610f9193929190614180565b6040516020818303038152906040526125b3565b9050600081604051602001610fba9190614229565b6040516020818303038152906040529050610fec604051806060016040528060398152602001614caf6039913961274b565b61102b6040518060400160405280600e81526020017f46696e616c20746f6b656e55524900000000000000000000000000000000000081525082611c78565b61104c604051806060016040528060398152602001614ce86039913961274b565b61105633866127e4565b6110608582612802565b3360098b8b604051611073929190613c77565b908152602001604051809103902060006101000a81548173ffffffffffffffffffffffffffffffffffffffff021916908373ffffffffffffffffffffffffffffffffffffffff1602179055506110fe6040518060400160405280601981526020017f25732068617320726567697374726564206120646f6d61696e0000000000000081525033612876565b8989600b60008881526020019081526020016000209190611120929190612fc2565b5061112b6007612912565b50505050505050505050565b600b602052806000526040600020600091509050805461115690613a5f565b80601f016020809104026020016040519081016040528092919081815260200182805461118290613a5f565b80156111cf5780601f106111a4576101008083540402835291602001916111cf565b820191906000526020600020905b8154815290600101906020018083116111b257829003601f168201915b505050505081565b600a81805160208101820180518482526020830160208501208183528095505050505050600091509050805461120c90613a5f565b80601f016020809104026020016040519081016040528092919081815260200182805461123890613a5f565b80156112855780601f1061125a57610100808354040283529160200191611285565b820191906000526020600020905b81548152906001019060200180831161126857829003601f168201915b505050505081565b6000806002600084815260200190815260200160002060009054906101000a900473ffffffffffffffffffffffffffffffffffffffff169050600073ffffffffffffffffffffffffffffffffffffffff168173ffffffffffffffffffffffffffffffffffffffff161415611336576040517f08c379a000000000000000000000000000000000000000000000000000000000815260040161132d906142bd565b60405180910390fd5b80915050919050565b60008073ffffffffffffffffffffffffffffffffffffffff168273ffffffffffffffffffffffffffffffffffffffff1614156113b0576040517f08c379a00000000000000000000000000000000000000000000000000000000081526004016113a79061434f565b60405180910390fd5b600360008373ffffffffffffffffffffffffffffffffffffffff1673ffffffffffffffffffffffffffffffffffffffff168152602001908152602001600020549050919050565b600c60009054906101000a900473ffffffffffffffffffffffffffffffffffffffff1681565b6000600c60009054906101000a900473ffffffffffffffffffffffffffffffffffffffff1673ffffffffffffffffffffffffffffffffffffffff163373ffffffffffffffffffffffffffffffffffffffff1614905090565b60606001805461148490613a5f565b80601f01602080910402602001604051908101604052809291908181526020018280546114b090613a5f565b80156114fd5780601f106114d2576101008083540402835291602001916114fd565b820191906000526020600020905b8154815290600101906020018083116114e057829003601f168201915b5050505050905090565b6000600361155884848080601f016020809104026020016040519081016040528093929190818152602001838380828437600081840152601f19601f820116905080830192505050505050506121fe565b101580156115b35750600a6115b084848080601f016020809104026020016040519081016040528093929190818152602001838380828437600081840152601f19601f820116905080830192505050505050506121fe565b11155b905092915050565b6115cd6115c6611dea565b8383612928565b5050565b6115e26115dc611dea565b83611eab565b611621576040517f08c379a000000000000000000000000000000000000000000000000000000000815260040161161890613d02565b60405180910390fd5b61162d84848484612a95565b50505050565b600060098383604051611647929190613c77565b908152602001604051809103902060009054906101000a900473ffffffffffffffffffffffffffffffffffffffff16905092915050565b60098484604051611690929190613c77565b908152602001604051809103902060009054906101000a900473ffffffffffffffffffffffffffffffffffffffff1673ffffffffffffffffffffffffffffffffffffffff163373ffffffffffffffffffffffffffffffffffffffff1614611723576040517f82b4290000000000000000000000000000000000000000000000000000000000815260040160405180910390fd5b8181600a8686604051611737929190613c77565b90815260200160405180910390209190611752929190612fc2565b5050505050565b606061176482611d7e565b6117a3576040517f08c379a000000000000000000000000000000000000000000000000000000000815260040161179a906143e1565b60405180910390fd5b60006006600084815260200190815260200160002080546117c390613a5f565b80601f01602080910402602001604051908101604052809291908181526020018280546117ef90613a5f565b801561183c5780601f106118115761010080835404028352916020019161183c565b820191906000526020600020905b81548152906001019060200180831161181f57829003601f168201915b50505050509050600061184d612af1565b90506000815114156118635781925050506118a6565b600082511115611898578082604051602001611880929190614401565b604051602081830303815290604052925050506118a6565b6118a184612b08565b925050505b919050565b6000600560008473ffffffffffffffffffffffffffffffffffffffff1673ffffffffffffffffffffffffffffffffffffffff16815260200190815260200160002060008373ffffffffffffffffffffffffffffffffffffffff1673ffffffffffffffffffffffffffffffffffffffff16815260200190815260200160002060009054906101000a900460ff16905092915050565b6060600061194d60076121f0565b67ffffffffffffffff811115611966576119656134aa565b5b60405190808252806020026020018201604052801561199957816020015b60608152602001906001900390816119845790505b50905060005b6119a960076121f0565b811015611bb057611a8a6040518060400160405280601681526020017f697465726174696f6e206920206e616d65735b695d2000000000000000000000815250600b60008481526020019081526020016000208054611a0790613a5f565b80601f0160208091040260200160405190810160405280929190818152602001828054611a3390613a5f565b8015611a805780601f10611a5557610100808354040283529160200191611a80565b820191906000526020600020905b815481529060010190602001808311611a6357829003601f168201915b5050505050611c78565b611ae36040518060400160405280601981526020017f697465726174696f6e20692020616c6c4e616d65735b695d2000000000000000815250838381518110611ad657611ad5614425565b5b6020026020010151611c78565b600b60008281526020019081526020016000208054611b0190613a5f565b80601f0160208091040260200160405190810160405280929190818152602001828054611b2d90613a5f565b8015611b7a5780601f10611b4f57610100808354040283529160200191611b7a565b820191906000526020600020905b815481529060010190602001808311611b5d57829003601f168201915b5050505050828281518110611b9257611b91614425565b5b60200260200101819052508080611ba890614483565b91505061199f565b508091505090565b600080611c0884848080601f016020809104026020016040519081016040528093929190818152602001838380828437600081840152601f19601f820116905080830192505050505050506121fe565b905060028111611c1757600080fd5b6003811415611c3157670de0b6b3a7640000915050611c72565b6004811415611c4b576706f05b59d3b20000915050611c72565b6005811415611c6557670429d069189e0000915050611c72565b67016345785d8a00009150505b92915050565b611d108282604051602401611c8e9291906144cc565b6040516020818303038152906040527f4b5c4277000000000000000000000000000000000000000000000000000000007bffffffffffffffffffffffffffffffffffffffffffffffffffffffff19166020820180517bffffffffffffffffffffffffffffffffffffffffffffffffffffffff8381831617835250505050612baf565b5050565b60007f01ffc9a7000000000000000000000000000000000000000000000000000000007bffffffffffffffffffffffffffffffffffffffffffffffffffffffff1916827bffffffffffffffffffffffffffffffffffffffffffffffffffffffff1916149050919050565b60008073ffffffffffffffffffffffffffffffffffffffff166002600084815260200190815260200160002060009054906101000a900473ffffffffffffffffffffffffffffffffffffffff1673ffffffffffffffffffffffffffffffffffffffff1614159050919050565b600033905090565b816004600083815260200190815260200160002060006101000a81548173ffffffffffffffffffffffffffffffffffffffff021916908373ffffffffffffffffffffffffffffffffffffffff160217905550808273ffffffffffffffffffffffffffffffffffffffff16611e658361128d565b73ffffffffffffffffffffffffffffffffffffffff167f8c5be1e5ebec7d5bd14f71427d1e84f3dd0314c0f7b2291e5b200ac8c7c3b92560405160405180910390a45050565b6000611eb682611d7e565b611ef5576040517f08c379a0000000000000000000000000000000000000000000000000000000008152600401611eec90614575565b60405180910390fd5b6000611f008361128d565b90508073ffffffffffffffffffffffffffffffffffffffff168473ffffffffffffffffffffffffffffffffffffffff161480611f6f57508373ffffffffffffffffffffffffffffffffffffffff16611f5784610859565b73ffffffffffffffffffffffffffffffffffffffff16145b80611f805750611f7f81856118ab565b5b91505092915050565b8273ffffffffffffffffffffffffffffffffffffffff16611fa98261128d565b73ffffffffffffffffffffffffffffffffffffffff1614611fff576040517f08c379a0000000000000000000000000000000000000000000000000000000008152600401611ff690614607565b60405180910390fd5b600073ffffffffffffffffffffffffffffffffffffffff168273ffffffffffffffffffffffffffffffffffffffff16141561206f576040517f08c379a000000000000000000000000000000000000000000000000000000000815260040161206690614699565b60405180910390fd5b61207a838383612bd8565b612085600082611df2565b6001600360008573ffffffffffffffffffffffffffffffffffffffff1673ffffffffffffffffffffffffffffffffffffffff16815260200190815260200160002060008282546120d591906146b9565b925050819055506001600360008473ffffffffffffffffffffffffffffffffffffffff1673ffffffffffffffffffffffffffffffffffffffff168152602001908152602001600020600082825461212c91906146ed565b92505081905550816002600083815260200190815260200160002060006101000a81548173ffffffffffffffffffffffffffffffffffffffff021916908373ffffffffffffffffffffffffffffffffffffffff160217905550808273ffffffffffffffffffffffffffffffffffffffff168473ffffffffffffffffffffffffffffffffffffffff167fddf252ad1be2c89b69c2b068fc378daa952ba7f163c4a11628f55a4df523b3ef60405160405180910390a46121eb838383612bdd565b505050565b600081600001549050919050565b60008060008084519050600092505b808210156123a857600085838151811061222a57612229614425565b5b602001015160f81c60f81b9050608060f81b817effffffffffffffffffffffffffffffffffffffffffffffffffffffffffffff191610156122795760018361227291906146ed565b9250612394565b60e060f81b817effffffffffffffffffffffffffffffffffffffffffffffffffffffffffffff191610156122bb576002836122b491906146ed565b9250612393565b60f060f81b817effffffffffffffffffffffffffffffffffffffffffffffffffffffffffffff191610156122fd576003836122f691906146ed565b9250612392565b60f8801b817effffffffffffffffffffffffffffffffffffffffffffffffffffffffffffff1916101561233e5760048361233791906146ed565b9250612391565b60fc60f81b817effffffffffffffffffffffffffffffffffffffffffffffffffffffffffffff191610156123805760058361237991906146ed565b9250612390565b60068361238d91906146ed565b92505b5b5b5b5b5082806123a090614483565b93505061220d565b829350505050919050565b606060008214156123fb576040518060400160405280600181526020017f3000000000000000000000000000000000000000000000000000000000000000815250905061250f565b600082905060005b6000821461242d57808061241690614483565b915050600a826124269190614772565b9150612403565b60008167ffffffffffffffff811115612449576124486134aa565b5b6040519080825280601f01601f19166020018201604052801561247b5781602001600182028036833780820191505090505b5090505b600085146125085760018261249491906146b9565b9150600a856124a391906147a3565b60306124af91906146ed565b60f81b8183815181106124c5576124c4614425565b5b60200101907effffffffffffffffffffffffffffffffffffffffffffffffffffffffffffff1916908160001a905350600a856125019190614772565b945061247f565b8093505050505b919050565b6125ae83838360405160240161252c939291906147d4565b6040516020818303038152906040527ff362ca59000000000000000000000000000000000000000000000000000000007bffffffffffffffffffffffffffffffffffffffffffffffffffffffff19166020820180517bffffffffffffffffffffffffffffffffffffffffffffffffffffffff8381831617835250505050612baf565b505050565b606060008251905060008114156125dc5760405180602001604052806000815250915050612746565b600060036002836125ed91906146ed565b6125f79190614772565b60046126039190614819565b9050600060208261261491906146ed565b67ffffffffffffffff81111561262d5761262c6134aa565b5b6040519080825280601f01601f19166020018201604052801561265f5781602001600182028036833780820191505090505b5090506000604051806060016040528060408152602001614d21604091399050600181016020830160005b868110156127035760038101905062ffffff818a015116603f8160121c168401518060081b905060ff603f83600c1c1686015116810190508060081b905060ff603f8360061c1686015116810190508060081b905060ff603f831686015116810190508060e01b9050808452600484019350505061268a565b50600386066001811461271d576002811461272d57612738565b613d3d60f01b6002830352612738565b603d60f81b60018303525b508484525050819450505050505b919050565b6127e18160405160240161275f9190613253565b6040516020818303038152906040527f41304fac000000000000000000000000000000000000000000000000000000007bffffffffffffffffffffffffffffffffffffffffffffffffffffffff19166020820180517bffffffffffffffffffffffffffffffffffffffffffffffffffffffff8381831617835250505050612baf565b50565b6127fe828260405180602001604052806000815250612be2565b5050565b61280b82611d7e565b61284a576040517f08c379a0000000000000000000000000000000000000000000000000000000008152600401612841906148e5565b60405180910390fd5b80600660008481526020019081526020016000209080519060200190612871929190613048565b505050565b61290e828260405160240161288c929190614905565b6040516020818303038152906040527f319af333000000000000000000000000000000000000000000000000000000007bffffffffffffffffffffffffffffffffffffffffffffffffffffffff19166020820180517bffffffffffffffffffffffffffffffffffffffffffffffffffffffff8381831617835250505050612baf565b5050565b6001816000016000828254019250508190555050565b8173ffffffffffffffffffffffffffffffffffffffff168373ffffffffffffffffffffffffffffffffffffffff161415612997576040517f08c379a000000000000000000000000000000000000000000000000000000000815260040161298e90614981565b60405180910390fd5b80600560008573ffffffffffffffffffffffffffffffffffffffff1673ffffffffffffffffffffffffffffffffffffffff16815260200190815260200160002060008473ffffffffffffffffffffffffffffffffffffffff1673ffffffffffffffffffffffffffffffffffffffff16815260200190815260200160002060006101000a81548160ff0219169083151502179055508173ffffffffffffffffffffffffffffffffffffffff168373ffffffffffffffffffffffffffffffffffffffff167f17307eab39ab6107e8899845ad3d59bd9653f200f220920489ca2b5937696c3183604051612a88919061319f565b60405180910390a3505050565b612aa0848484611f89565b612aac84848484612c3d565b612aeb576040517f08c379a0000000000000000000000000000000000000000000000000000000008152600401612ae290614a13565b60405180910390fd5b50505050565b606060405180602001604052806000815250905090565b6060612b1382611d7e565b612b52576040517f08c379a0000000000000000000000000000000000000000000000000000000008152600401612b4990614aa5565b60405180910390fd5b6000612b5c612af1565b90506000815111612b7c5760405180602001604052806000815250612ba7565b80612b86846123b3565b604051602001612b97929190614401565b6040516020818303038152906040525b915050919050565b60008151905060006a636f6e736f6c652e6c6f679050602083016000808483855afa5050505050565b505050565b505050565b612bec8383612dc5565b612bf96000848484612c3d565b612c38576040517f08c379a0000000000000000000000000000000000000000000000000000000008152600401612c2f90614a13565b60405180910390fd5b505050565b6000612c5e8473ffffffffffffffffffffffffffffffffffffffff16612f9f565b15612db8578373ffffffffffffffffffffffffffffffffffffffff1663150b7a02612c87611dea565b8786866040518563ffffffff1660e01b8152600401612ca99493929190614b1a565b6020604051808303816000875af1925050508015612ce557506040513d601f19601f82011682018060405250810190612ce29190614b7b565b60015b612d68573d8060008114612d15576040519150601f19603f3d011682016040523d82523d6000602084013e612d1a565b606091505b50600081511415612d60576040517f08c379a0000000000000000000000000000000000000000000000000000000008152600401612d5790614a13565b60405180910390fd5b805181602001fd5b63150b7a0260e01b7bffffffffffffffffffffffffffffffffffffffffffffffffffffffff1916817bffffffffffffffffffffffffffffffffffffffffffffffffffffffff191614915050612dbd565b600190505b949350505050565b600073ffffffffffffffffffffffffffffffffffffffff168273ffffffffffffffffffffffffffffffffffffffff161415612e35576040517f08c379a0000000000000000000000000000000000000000000000000000000008152600401612e2c90614bf4565b60405180910390fd5b612e3e81611d7e565b15612e7e576040517f08c379a0000000000000000000000000000000000000000000000000000000008152600401612e7590614c60565b60405180910390fd5b612e8a60008383612bd8565b6001600360008473ffffffffffffffffffffffffffffffffffffffff1673ffffffffffffffffffffffffffffffffffffffff1681526020019081526020016000206000828254612eda91906146ed565b92505081905550816002600083815260200190815260200160002060006101000a81548173ffffffffffffffffffffffffffffffffffffffff021916908373ffffffffffffffffffffffffffffffffffffffff160217905550808273ffffffffffffffffffffffffffffffffffffffff16600073ffffffffffffffffffffffffffffffffffffffff167fddf252ad1be2c89b69c2b068fc378daa952ba7f163c4a11628f55a4df523b3ef60405160405180910390a4612f9b60008383612bdd565b5050565b6000808273ffffffffffffffffffffffffffffffffffffffff163b119050919050565b828054612fce90613a5f565b90600052602060002090601f016020900481019282612ff05760008555613037565b82601f1061300957803560ff1916838001178555613037565b82800160010185558215613037579182015b8281111561303657823582559160200191906001019061301b565b5b50905061304491906130ce565b5090565b82805461305490613a5f565b90600052602060002090601f01602090048101928261307657600085556130bd565b82601f1061308f57805160ff19168380011785556130bd565b828001600101855582156130bd579182015b828111156130bc5782518255916020019190600101906130a1565b5b5090506130ca91906130ce565b5090565b5b808211156130e75760008160009055506001016130cf565b5090565b6000604051905090565b600080fd5b600080fd5b60007fffffffff0000000000000000000000000000000000000000000000000000000082169050919050565b613134816130ff565b811461313f57600080fd5b50565b6000813590506131518161312b565b92915050565b60006020828403121561316d5761316c6130f5565b5b600061317b84828501613142565b91505092915050565b60008115159050919050565b61319981613184565b82525050565b60006020820190506131b46000830184613190565b92915050565b600081519050919050565b600082825260208201905092915050565b60005b838110156131f45780820151818401526020810190506131d9565b83811115613203576000848401525b50505050565b6000601f19601f8301169050919050565b6000613225826131ba565b61322f81856131c5565b935061323f8185602086016131d6565b61324881613209565b840191505092915050565b6000602082019050818103600083015261326d818461321a565b905092915050565b6000819050919050565b61328881613275565b811461329357600080fd5b50565b6000813590506132a58161327f565b92915050565b6000602082840312156132c1576132c06130f5565b5b60006132cf84828501613296565b91505092915050565b600073ffffffffffffffffffffffffffffffffffffffff82169050919050565b6000613303826132d8565b9050919050565b613313816132f8565b82525050565b600060208201905061332e600083018461330a565b92915050565b61333d816132f8565b811461334857600080fd5b50565b60008135905061335a81613334565b92915050565b60008060408385031215613377576133766130f5565b5b60006133858582860161334b565b925050602061339685828601613296565b9150509250929050565b600080fd5b600080fd5b600080fd5b60008083601f8401126133c5576133c46133a0565b5b8235905067ffffffffffffffff8111156133e2576133e16133a5565b5b6020830191508360018202830111156133fe576133fd6133aa565b5b9250929050565b6000806020838503121561341c5761341b6130f5565b5b600083013567ffffffffffffffff81111561343a576134396130fa565b5b613446858286016133af565b92509250509250929050565b60008060006060848603121561346b5761346a6130f5565b5b60006134798682870161334b565b935050602061348a8682870161334b565b925050604061349b86828701613296565b9150509250925092565b600080fd5b7f4e487b7100000000000000000000000000000000000000000000000000000000600052604160045260246000fd5b6134e282613209565b810181811067ffffffffffffffff82111715613501576135006134aa565b5b80604052505050565b60006135146130eb565b905061352082826134d9565b919050565b600067ffffffffffffffff8211156135405761353f6134aa565b5b61354982613209565b9050602081019050919050565b82818337600083830152505050565b600061357861357384613525565b61350a565b905082815260208101848484011115613594576135936134a5565b5b61359f848285613556565b509392505050565b600082601f8301126135bc576135bb6133a0565b5b81356135cc848260208601613565565b91505092915050565b6000602082840312156135eb576135ea6130f5565b5b600082013567ffffffffffffffff811115613609576136086130fa565b5b613615848285016135a7565b91505092915050565b600060208284031215613634576136336130f5565b5b60006136428482850161334b565b91505092915050565b61365481613275565b82525050565b600060208201905061366f600083018461364b565b92915050565b6000613680826132d8565b9050919050565b61369081613675565b82525050565b60006020820190506136ab6000830184613687565b92915050565b6136ba81613184565b81146136c557600080fd5b50565b6000813590506136d7816136b1565b92915050565b600080604083850312156136f4576136f36130f5565b5b60006137028582860161334b565b9250506020613713858286016136c8565b9150509250929050565b600067ffffffffffffffff821115613738576137376134aa565b5b61374182613209565b9050602081019050919050565b600061376161375c8461371d565b61350a565b90508281526020810184848401111561377d5761377c6134a5565b5b613788848285613556565b509392505050565b600082601f8301126137a5576137a46133a0565b5b81356137b584826020860161374e565b91505092915050565b600080600080608085870312156137d8576137d76130f5565b5b60006137e68782880161334b565b94505060206137f78782880161334b565b935050604061380887828801613296565b925050606085013567ffffffffffffffff811115613829576138286130fa565b5b61383587828801613790565b91505092959194509250565b6000806000806040858703121561385b5761385a6130f5565b5b600085013567ffffffffffffffff811115613879576138786130fa565b5b613885878288016133af565b9450945050602085013567ffffffffffffffff8111156138a8576138a76130fa565b5b6138b4878288016133af565b925092505092959194509250565b600080604083850312156138d9576138d86130f5565b5b60006138e78582860161334b565b92505060206138f88582860161334b565b9150509250929050565b600081519050919050565b600082825260208201905092915050565b6000819050602082019050919050565b600082825260208201905092915050565b600061394a826131ba565b613954818561392e565b93506139648185602086016131d6565b61396d81613209565b840191505092915050565b6000613984838361393f565b905092915050565b6000602082019050919050565b60006139a482613902565b6139ae818561390d565b9350836020820285016139c08561391e565b8060005b858110156139fc57848403895281516139dd8582613978565b94506139e88361398c565b925060208a019950506001810190506139c4565b50829750879550505050505092915050565b60006020820190508181036000830152613a288184613999565b905092915050565b7f4e487b7100000000000000000000000000000000000000000000000000000000600052602260045260246000fd5b60006002820490506001821680613a7757607f821691505b60208210811415613a8b57613a8a613a30565b5b50919050565b7f4552433732313a20617070726f76656420717565727920666f72206e6f6e657860008201527f697374656e7420746f6b656e0000000000000000000000000000000000000000602082015250565b6000613aed602c836131c5565b9150613af882613a91565b604082019050919050565b60006020820190508181036000830152613b1c81613ae0565b9050919050565b7f4552433732313a20617070726f76616c20746f2063757272656e74206f776e6560008201527f7200000000000000000000000000000000000000000000000000000000000000602082015250565b6000613b7f6021836131c5565b9150613b8a82613b23565b604082019050919050565b60006020820190508181036000830152613bae81613b72565b9050919050565b7f4552433732313a20617070726f76652063616c6c6572206973206e6f74206f7760008201527f6e6572206e6f7220617070726f76656420666f7220616c6c0000000000000000602082015250565b6000613c116038836131c5565b9150613c1c82613bb5565b604082019050919050565b60006020820190508181036000830152613c4081613c04565b9050919050565b600081905092915050565b6000613c5e8385613c47565b9350613c6b838584613556565b82840190509392505050565b6000613c84828486613c52565b91508190509392505050565b7f4552433732313a207472616e736665722063616c6c6572206973206e6f74206f60008201527f776e6572206e6f7220617070726f766564000000000000000000000000000000602082015250565b6000613cec6031836131c5565b9150613cf782613c90565b604082019050919050565b60006020820190508181036000830152613d1b81613cdf565b9050919050565b600081905092915050565b50565b6000613d3d600083613d22565b9150613d4882613d2d565b600082019050919050565b6000613d5e82613d30565b9150819050919050565b7f6661696c656420746f207769746864726177204d415449430000000000000000600082015250565b6000613d9e6018836131c5565b9150613da982613d68565b602082019050919050565b60006020820190508181036000830152613dcd81613d91565b9050919050565b6000613de083856131c5565b9350613ded838584613556565b613df683613209565b840190509392505050565b60006020820190508181036000830152613e1c818486613dd4565b90509392505050565b7f6e6f7420656e6f756768206d6174696320706169640000000000000000000000600082015250565b6000613e5b6015836131c5565b9150613e6682613e25565b602082019050919050565b60006020820190508181036000830152613e8a81613e4e565b9050919050565b7f2e00000000000000000000000000000000000000000000000000000000000000600082015250565b6000613ec7600183613c47565b9150613ed282613e91565b600182019050919050565b60008190508160005260206000209050919050565b60008154613eff81613a5f565b613f098186613c47565b94506001821660008114613f245760018114613f3557613f68565b60ff19831686528186019350613f68565b613f3e85613edd565b60005b83811015613f6057815481890152600182019150602081019050613f41565b838801955050505b50505092915050565b6000613f7e828587613c52565b9150613f8982613eba565b9150613f958284613ef2565b9150819050949350505050565b6000613fad826131ba565b613fb78185613c47565b9350613fc78185602086016131d6565b80840191505092915050565b6000613fdf8286613ef2565b9150613feb8285613fa2565b9150613ff78284613ef2565b9150819050949350505050565b7f7b226e616d65223a220000000000000000000000000000000000000000000000600082015250565b600061403a600983613c47565b915061404582614004565b600982019050919050565b7f222c226465736372697074696f6e223a224120646f6d61696e206f6e2074686560008201527f204e696e6a61206e616d652073657276696365222c22696d616765223a22646160208201527f74613a696d6167652f7376672b786d6c3b6261736536342c0000000000000000604082015250565b60006140d2605883613c47565b91506140dd82614050565b605882019050919050565b7f222c226c656e677468223a220000000000000000000000000000000000000000600082015250565b600061411e600c83613c47565b9150614129826140e8565b600c82019050919050565b7f227d000000000000000000000000000000000000000000000000000000000000600082015250565b600061416a600283613c47565b915061417582614134565b600282019050919050565b600061418b8261402d565b91506141978286613fa2565b91506141a2826140c5565b91506141ae8285613fa2565b91506141b982614111565b91506141c58284613fa2565b91506141d08261415d565b9150819050949350505050565b7f646174613a6170706c69636174696f6e2f6a736f6e3b6261736536342c000000600082015250565b6000614213601d83613c47565b915061421e826141dd565b601d82019050919050565b600061423482614206565b91506142408284613fa2565b915081905092915050565b7f4552433732313a206f776e657220717565727920666f72206e6f6e657869737460008201527f656e7420746f6b656e0000000000000000000000000000000000000000000000602082015250565b60006142a76029836131c5565b91506142b28261424b565b604082019050919050565b600060208201905081810360008301526142d68161429a565b9050919050565b7f4552433732313a2062616c616e636520717565727920666f7220746865207a6560008201527f726f206164647265737300000000000000000000000000000000000000000000602082015250565b6000614339602a836131c5565b9150614344826142dd565b604082019050919050565b600060208201905081810360008301526143688161432c565b9050919050565b7f45524337323155524953746f726167653a2055524920717565727920666f722060008201527f6e6f6e6578697374656e7420746f6b656e000000000000000000000000000000602082015250565b60006143cb6031836131c5565b91506143d68261436f565b604082019050919050565b600060208201905081810360008301526143fa816143be565b9050919050565b600061440d8285613fa2565b91506144198284613fa2565b91508190509392505050565b7f4e487b7100000000000000000000000000000000000000000000000000000000600052603260045260246000fd5b7f4e487b7100000000000000000000000000000000000000000000000000000000600052601160045260246000fd5b600061448e82613275565b91507fffffffffffffffffffffffffffffffffffffffffffffffffffffffffffffffff8214156144c1576144c0614454565b5b600182019050919050565b600060408201905081810360008301526144e6818561321a565b905081810360208301526144fa818461321a565b90509392505050565b7f4552433732313a206f70657261746f7220717565727920666f72206e6f6e657860008201527f697374656e7420746f6b656e0000000000000000000000000000000000000000602082015250565b600061455f602c836131c5565b915061456a82614503565b604082019050919050565b6000602082019050818103600083015261458e81614552565b9050919050565b7f4552433732313a207472616e736665722066726f6d20696e636f72726563742060008201527f6f776e6572000000000000000000000000000000000000000000000000000000602082015250565b60006145f16025836131c5565b91506145fc82614595565b604082019050919050565b60006020820190508181036000830152614620816145e4565b9050919050565b7f4552433732313a207472616e7366657220746f20746865207a65726f2061646460008201527f7265737300000000000000000000000000000000000000000000000000000000602082015250565b60006146836024836131c5565b915061468e82614627565b604082019050919050565b600060208201905081810360008301526146b281614676565b9050919050565b60006146c482613275565b91506146cf83613275565b9250828210156146e2576146e1614454565b5b828203905092915050565b60006146f882613275565b915061470383613275565b9250827fffffffffffffffffffffffffffffffffffffffffffffffffffffffffffffffff0382111561473857614737614454565b5b828201905092915050565b7f4e487b7100000000000000000000000000000000000000000000000000000000600052601260045260246000fd5b600061477d82613275565b915061478883613275565b92508261479857614797614743565b5b828204905092915050565b60006147ae82613275565b91506147b983613275565b9250826147c9576147c8614743565b5b828206905092915050565b600060608201905081810360008301526147ee818661321a565b90508181036020830152614802818561321a565b9050614811604083018461364b565b949350505050565b600061482482613275565b915061482f83613275565b9250817fffffffffffffffffffffffffffffffffffffffffffffffffffffffffffffffff048311821515161561486857614867614454565b5b828202905092915050565b7f45524337323155524953746f726167653a2055524920736574206f66206e6f6e60008201527f6578697374656e7420746f6b656e000000000000000000000000000000000000602082015250565b60006148cf602e836131c5565b91506148da82614873565b604082019050919050565b600060208201905081810360008301526148fe816148c2565b9050919050565b6000604082019050818103600083015261491f818561321a565b905061492e602083018461330a565b9392505050565b7f4552433732313a20617070726f766520746f2063616c6c657200000000000000600082015250565b600061496b6019836131c5565b915061497682614935565b602082019050919050565b6000602082019050818103600083015261499a8161495e565b9050919050565b7f4552433732313a207472616e7366657220746f206e6f6e20455243373231526560008201527f63656976657220696d706c656d656e7465720000000000000000000000000000602082015250565b60006149fd6032836131c5565b9150614a08826149a1565b604082019050919050565b60006020820190508181036000830152614a2c816149f0565b9050919050565b7f4552433732314d657461646174613a2055524920717565727920666f72206e6f60008201527f6e6578697374656e7420746f6b656e0000000000000000000000000000000000602082015250565b6000614a8f602f836131c5565b9150614a9a82614a33565b604082019050919050565b60006020820190508181036000830152614abe81614a82565b9050919050565b600081519050919050565b600082825260208201905092915050565b6000614aec82614ac5565b614af68185614ad0565b9350614b068185602086016131d6565b614b0f81613209565b840191505092915050565b6000608082019050614b2f600083018761330a565b614b3c602083018661330a565b614b49604083018561364b565b8181036060830152614b5b8184614ae1565b905095945050505050565b600081519050614b758161312b565b92915050565b600060208284031215614b9157614b906130f5565b5b6000614b9f84828501614b66565b91505092915050565b7f4552433732313a206d696e7420746f20746865207a65726f2061646472657373600082015250565b6000614bde6020836131c5565b9150614be982614ba8565b602082019050919050565b60006020820190508181036000830152614c0d81614bd1565b9050919050565b7f4552433732313a20746f6b656e20616c7265616479206d696e74656400000000600082015250565b6000614c4a601c836131c5565b9150614c5582614c14565b602082019050919050565b60006020820190508181036000830152614c7981614c3d565b905091905056fe5265676973746572696e67202573206f6e2074686520636f6e7472616374207769746820746f6b656e49642025640a2d2d2d2d2d2d2d2d2d2d2d2d2d2d2d2d2d2d2d2d2d2d2d2d2d2d2d2d2d2d2d2d2d2d2d2d2d2d2d2d2d2d2d2d2d2d2d2d2d2d2d2d2d2d2d2d2d2d2d2d2d2d2d2d2d2d2d2d2d2d2d2d2d2d2d2d2d2d2d2d2d2d2d2d2d2d2d2d2d2d2d2d2d2d2d2d2d2d2d2d2d2d2d2d2d2d2d2d2d2d2d2d0a4142434445464748494a4b4c4d4e4f505152535455565758595a6162636465666768696a6b6c6d6e6f707172737475767778797a303132333435363738392b2fa264697066735822122081cdac8901a2e257446ceb1a618b2fb4b7d0b47802398dbde08635994ecb4a8a64736f6c634300080a00333c73766720786d6c6e733d22687474703a2f2f7777772e77332e6f72672f323030302f737667222077696474683d2232373022206865696768743d22323730222066696c6c3d226e6f6e65223e3c706174682066696c6c3d2275726c282342292220643d224d302030683237307632373048307a222f3e3c646566733e3c66696c7465722069643d22412220636f6c6f722d696e746572706f6c6174696f6e2d66696c746572733d2273524742222066696c746572556e6974733d227573657253706163654f6e55736522206865696768743d22323730222077696474683d22323730223e3c666544726f70536861646f772064783d2230222064793d22312220737464446576696174696f6e3d22322220666c6f6f642d6f7061636974793d222e323235222077696474683d223230302522206865696768743d2232303025222f3e3c2f66696c7465723e3c2f646566733e3c7061746820643d224d37322e3836332034322e393439632d2e3636382d2e3338372d312e3432362d2e35392d322e3139372d2e3539732d312e3532392e3230342d322e3139372e35396c2d31302e30383120362e3033322d362e383520332e3933342d31302e30383120362e303332632d2e3636382e3338372d312e3432362e35392d322e3139372e3539732d312e3532392d2e3230342d322e3139372d2e35396c2d382e3031332d342e37323161342e353220342e35322030203020312d312e3538392d312e363136632d2e3338342d2e3636352d2e3539342d312e3431382d2e3630382d322e313837762d392e3331632d2e3031332d2e3737352e3138352d312e3533382e3537322d322e32303861342e323520342e323520302030203120312e3632352d312e3539356c372e3838342d342e3539632e3636382d2e33383720312e3432362d2e353920322e3139372d2e353973312e3532392e32303420322e3139372e35396c372e38383420342e353961342e353220342e353220302030203120312e35383920312e363136632e3338342e3636352e35393420312e3431382e36303820322e31383776362e3033326c362e38352d342e303635762d362e303332632e3031332d2e3737352d2e3138352d312e3533382d2e3537322d322e32303861342e323520342e32352030203020302d312e3632352d312e3539354c34312e3435362032342e3539632d2e3636382d2e3338372d312e3432362d2e35392d322e3139372d2e3539732d312e3532392e3230342d322e3139372e35396c2d31342e38363420382e36353561342e323520342e32352030203020302d312e36323520312e353935632d2e3338372e36372d2e35383520312e3433342d2e35373220322e3230387631372e343431632d2e3031332e3737352e31383520312e3533382e35373220322e32303861342e323520342e323520302030203020312e36323520312e3539356c31342e38363420382e363535632e3636382e33383720312e3432362e353920322e3139372e353973312e3532392d2e32303420322e3139372d2e35396c31302e3038312d352e39303120362e38352d342e3036352031302e3038312d352e393031632e3636382d2e33383720312e3432362d2e353920322e3139372d2e353973312e3532392e32303420322e3139372e35396c372e38383420342e353961342e353220342e353220302030203120312e35383920312e363136632e3338342e3636352e35393420312e3431382e36303820322e31383776392e333131632e3031332e3737352d2e31383520312e3533382d2e35373220322e32303861342e323520342e32352030203020312d312e36323520312e3539356c2d372e38383420342e373231632d2e3636382e3338372d312e3432362e35392d322e3139372e3539732d312e3532392d2e3230342d322e3139372d2e35396c2d372e3838342d342e353961342e353220342e35322030203020312d312e3538392d312e363136632d2e3338352d2e3636352d2e3539342d312e3431382d2e3630382d322e313837762d362e3033326c2d362e383520342e30363576362e303332632d2e3031332e3737352e31383520312e3533382e35373220322e32303861342e323520342e323520302030203020312e36323520312e3539356c31342e38363420382e363535632e3636382e33383720312e3432362e353920322e3139372e353973312e3532392d2e32303420322e3139372d2e35396c31342e3836342d382e363535632e3635372d2e33393420312e3230342d2e393520312e3538392d312e363136732e3539342d312e3431382e3630392d322e3138375635352e353338632e3031332d2e3737352d2e3138352d312e3533382d2e3537322d322e32303861342e323520342e32352030203020302d312e3632352d312e3539356c2d31342e3939332d382e3738367a222066696c6c3d2223666666222f3e3c646566733e3c6c696e6561724772616469656e742069643d2242222078313d2230222079313d2230222078323d22323730222079323d2232373022206772616469656e74556e6974733d227573657253706163654f6e557365223e3c73746f702073746f702d636f6c6f723d2223636235656565222f3e3c73746f70206f66667365743d2231222073746f702d636f6c6f723d2223306364376534222073746f702d6f7061636974793d222e3939222f3e3c2f6c696e6561724772616469656e743e3c2f646566733e3c7465787420783d2233322e352220793d223233312220666f6e742d73697a653d223237222066696c6c3d2223666666222066696c7465723d2275726c282341292220666f6e742d66616d696c793d22506c7573204a616b617274612053616e732c44656a6156752053616e732c4e6f746f20436f6c6f7220456d6f6a692c4170706c6520436f6c6f7220456d6f6a692c73616e732d73657269662220666f6e742d7765696768743d22626f6c64223e",
  "linkReferences": {},
  "deployedLinkReferences": {}
}